:100000000C945C000C9479000C9479000C947900A9
:100010000C9479000C9479000C9479000C9479007C
:100020000C9479000C9479000C9479000C9479006C
:100030000C9479000C9479000C9479000C9479005C
:100040000C94C3000C9479000C9479000C94790002
:100050000C9479000C9479000C9479000C9479003C
:100060000C9479000C947900000000002400270013
:100070002A0000000000250028002B0004040404CE
:100080000404040402020202020203030303030342
:10009000010204081020408001020408102001021F
:1000A00004081020000000080002010000030407FB
:1000B000000000000000000011241FBECFEFD8E0B8
:1000C000DEBFCDBF11E0A0E0B1E0E2E8F4E002C0A5
:1000D00005900D92A030B107D9F721E0A0E0B1E082
:1000E00001C01D92A930B207E1F70E940D010C94E6
:1000F0003F020C940000EAEAF0E02491E6E9F0E027
:100100009491E2E8F0E0E491EE23C9F0222339F083
:10011000233001F1A8F4213019F1223029F1F0E067
:10012000EE0FFF1FEE58FF4FA591B4912FB7F89433
:10013000EC91811126C090959E239C932FBF08952A
:100140002730A9F02830C9F0243049F720918000E9
:100150002F7D03C0209180002F7720938000DFCF78
:1001600024B52F7724BDDBCF24B52F7DFBCF209185
:10017000B0002F772093B000D2CF2091B0002F7D18
:10018000F9CF9E2BDACF1F920F920FB60F92112448
:100190002F933F938F939F93AF93BF9380910501CC
:1001A00090910601A0910701B091080130910401DE
:1001B00023E0230F2D3758F50196A11DB11D209383
:1001C00004018093050190930601A0930701B09369
:1001D00008018091000190910101A0910201B0916C
:1001E00003010196A11DB11D8093000190930101AF
:1001F000A0930201B0930301BF91AF919F918F91A2
:100200003F912F910F900FBE0F901F90189526E8E9
:10021000230F0296A11DB11DD2CF789484B58260C0
:1002200084BD84B5816084BD85B5826085BD85B59A
:10023000816085BD80916E00816080936E00109218
:100240008100809181008260809381008091810093
:100250008160809381008091800081608093800024
:100260008091B10084608093B1008091B000816082
:100270008093B00080917A00846080937A008091AE
:100280007A00826080937A0080917A008160809306
:100290007A0080917A00806880937A001092C10081
:1002A00070E4772E88248A94E3E09E2EA12CB12C52
:1002B000C6E9D0E002E810E0FAEACF2EF0E0DF2E47
:1002C000A0E0EA2EA0E0FA2E70927C0080917A00E5
:1002D000806480937A0080917A0086FDFCCFA091A3
:1002E0007800B09179002FEF30E00E943802A5012C
:1002F00094010E94E801A901FE016490F801849133
:10030000882399F090E0880F991FFC01E859FF4F6E
:10031000A591B491FC01EE58FF4F659174918FB790
:10032000F8949C91692A6C928FBF4115510551F444
:1003300080E00E947B00E114F10409F4C5CF0E9423
:100340000000C2CF4F3F510511F481E0F2CFF6011A
:100350008491833019F140F48130B1F08230C9F0DA
:100360004038510594F7E4CF873011F1883041F1DE
:100370008430B1F780918000806280938000309358
:100380008B0020938A00D7CF84B5806884BD27BDB9
:10039000D2CF84B5806284BD28BDCDCF809180004E
:1003A0008068809380003093890020938800C3CFB9
:1003B0008091B00080688093B0002093B300BBCFE1
:1003C0008091B00080628093B0002093B400B3CFDE
:1003D000052E97FB1EF400940E94FF0157FD07D0E5
:1003E0000E94070207FC03D04EF40C94FF015095C5
:1003F0004095309521953F4F4F4F5F4F0895909511
:100400008095709561957F4F8F4F9F4F0895A1E222
:100410001A2EAA1BBB1BFD010DC0AA1FBB1FEE1F7E
:10042000FF1FA217B307E407F50720F0A21BB30BC9
:10043000E40BF50B661F771F881F991F1A9469F745
:1004400060957095809590959B01AC01BD01CF01A1
:100450000895A29FB001B39FC001A39F700D811D9D
:100460001124911DB29F700D811D1124911D0895BD
:100470000E942902B7FF0895821B930B0895F894F8
:02048000FFCFAC
:00000001FF
